:100000000C9434000C943E000C9440000C943E0080
:100010000C943E000C943E000C943E000C943E0068
:100020000C943E000C943E000C943E000C943E0058
:100030000C943E000C943E000C943E000C943E0048
:100040000C943E000C943E000C943E000C943E0038
:100050000C943E000C943E000C943E000C943E0028
:100060000C943E000C943E0011241FBECFEFD8E04C
:10007000DEBFCDBF0E9442000C9419010C94000019
:100080002160189508E00EBF0FEF0DBF22278827CB
:10009000992722243324882499245DD038983998CC
:1000A0005398209A219A229A579A569A559A03E27F
:1000B00004BD03E005BD01E2009380000BE0009366
:1000C0008100009169000C60009369000DB302602B
:1000D0000DBB7894019620FD3AD016B11370103004
:1000E00061F02B7F1330F9F0113019F0123019F054
:1000F0002CC04BD02AC051D028C021FD10C022FDF9
:1001000005C02460882E992E38D01FC0482F592F43
:10011000481959095B3018F021F4483B10F42DD0F0
:1001200014C043D0FFCF482F592F421953095030E4
:1001300060F0282E392E523018F42D7F0CD002C0DA
:10014000226012D01AD062D000C058D0C3CF2E7F08
:1001500021FD30D0089507E3402E04E3502E00E542
:10016000602E03E2702E08950EE1402E00E2502E24
:100170000CE3602E09E1702E0895289A29985F9A61
:100180005E9840928A0058BC0895289A29985F9AF0
:100190005E9870928A0068BC0895289A29985F9AA0
:1001A0005E9860928A0078BC089500E000938A000F
:1001B00008BD0895E2DF02E300938A0004E308BD6E
:1001C0002FD0F3DF28D02898299A5F9A5E9806E40A
:1001D00000938A0008BD24D0E8DF1DD02898299A12
:1001E0005F985E9A09E200938A0008E208BD18D081
:1001F00017D016D015D014D0D8DFFFCF40E15AEF7A
:1002000000005A95E9F74A95D1F7089566E9F6DFB7
:100210006A95E9F7089568ECF1DF6A95E9F70895C2
:100220006AEFECDF6A95E9F76AEFE8DF6A95E9F7CC
:060230000895F894FFCFD1
:00000001FF
